{
  "contractName": "SimpleStorage",
  "abi": [
    {
      "constant": true,
      "inputs": [],
      "name": "num",
      "outputs": [
        {
          "internalType": "uint256",
          "name": "",
          "type": "uint256"
        }
      ],
      "payable": false,
      "stateMutability": "view",
      "type": "function"
    },
    {
      "constant": false,
      "inputs": [
        {
          "internalType": "uint256",
          "name": "_num",
          "type": "uint256"
        }
      ],
      "name": "set",
      "outputs": [],
      "payable": false,
      "stateMutability": "nonpayable",
      "type": "function"
    },
    {
      "constant": true,
      "inputs": [],
      "name": "get",
      "outputs": [
        {
          "internalType": "uint256",
          "name": "",
          "type": "uint256"
        }
      ],
      "payable": false,
      "stateMutability": "view",
      "type": "function"
    }
  ],
  "bytecode": "0x608060405234801561001057600080fd5b5060f28061001f6000396000f3fe6080604052348015600f57600080fd5b5060043610603c5760003560e01c80634e70b1dc14604157806360fe47b114605d5780636d4ce63c146088575b600080fd5b604760a4565b6040518082815260200191505060405180910390f35b608660048036036020811015607157600080fd5b810190808035906020019092919050505060aa565b005b608e60b4565b6040518082815260200191505060405180910390f35b60005481565b8060008190555050565b6000805490509056fea265627a7a723158206d2c2f93aae172696a758be0f5187d14cde1e0b70cad3e520536ad0ea24283a764736f6c63430005100032",
  "source": "// SPDX-License-Identifier: MIT\n// From: https://solidity-by-example.org/0.6/state-variables/\n\npragma solidity <0.6.10;\n\ncontract SimpleStorage {\n    // State variable to store a number\n    uint public num;\n\n    // You need to send a transaction to write to a state variable.\n    function set(uint _num) public {\n        num = _num;\n    }\n\n    // You can read from a state variable without sending a transaction.\n    // Actually we don't need this function. The compiler automatically\n    // creates getter functions for all public variables.\n    function get() public view returns (uint) {\n        return num;\n    }\n}\n",
  "sourcePath": "/home/disnocen/pr/hello-world-ethereum/contracts/SimpleStorage.sol",
  "compiler": {
    "name": "solc",
    "version": "0.5.16+commit.9c3226ce.Emscripten.clang"
  },
  "schemaVersion": "3.3.2",
  "updatedAt": "2020-11-12T07:54:02.284Z",
  "networkType": "ethereum",
  "devdoc": {
    "methods": {}
  },
  "userdoc": {
    "methods": {}
  }
}